:100000000C9462000C948A000C948A000C948A0070
:100010000C948A000C948A000C948A000C948A0038
:100020000C948A000C948A000C948A000C948A0028
:100030000C948A000C948A000C948A000C948A0018
:100040000C944B030C948A000C94BB030C94950302
:100050000C948A000C948A000C948A000C948A00F8
:100060000C948A000C948A000000000024002700F1
:100070002A0000000000250028002B0000000000DE
:1000800023002600290004040404040404040202DA
:100090000202020203030303030301020408102007
:1000A0004080010204081020010204081020000012
:1000B0000008000201000003040700000000000027
:1000C0000000380711241FBECFEFD8E0DEBFCDBF40
:1000D00017E0A0E0B1E0EEE1FFE002C005900D9274
:1000E000A030B107D9F727E0A0E0B7E001C01D922A
:1000F000A73AB207E1F710E0C2E6D0E004C02197CA
:10010000FE010E948707C136D107C9F70E94ED039F
:100110000C948D070C940000833081F028F481301A
:1001200099F08230A9F008958730A9F08830C9F09D
:100130008430B1F4809180008F7D03C08091800075
:100140008F7780938000089584B58F7784BD08955C
:1001500084B58F7DFBCF8091B0008F778093B00006
:1001600008958091B0008F7DF9CFCF93DF93E0EBBE
:10017000F0E08491ECE9F0E0D491E8E8F0E0C4919B
:10018000CC23A1F081110E948C00EC2FF0E0EE0F47
:10019000FF1FE458FF4FA591B491EC91ED2381E04E
:1001A00090E009F480E0DF91CF91089580E090E045
:1001B000FACF1F93CF93DF93282F30E0F901E25558
:1001C000FF4F8491F901E656FF4FD491F901EA57A8
:1001D000FF4FC491CC23A9F0162F81110E948C00EF
:1001E000EC2FF0E0EE0FFF1FEE58FF4FA591B491FA
:1001F0008FB7F894EC91111108C0D095DE23DC93F1
:100200008FBFDF91CF911F910895DE2BF8CFCF9351
:10021000DF9390E0FC01E656FF4F24918A579F4FF1
:10022000FC0184918823D1F090E0880F991FFC0194
:10023000E859FF4FA591B491FC01EE58FF4FC591CD
:10024000D49161110EC09FB7F8948C91E22FE09584
:100250008E238C932881E223E8839FBFDF91CF9187
:1002600008958FB7F894EC91E22BEC938FBFF6CF03
:100270003FB7F8948091060790910707A09108076F
:10028000B091090726B5A89B05C02F3F19F001962C
:10029000A11DB11D3FBFBA2FA92F982F8827BC01E0
:1002A000CD01620F711D811D911D42E0660F771F08
:1002B000881F991F4A95D1F708958F929F92AF9208
:1002C000BF92CF92DF92EF92FF924B015C010E94AE
:1002D00038016B017C010E9438016C197D098E097F
:1002E0009F09683E734081059105A8F321E0821AB9
:1002F0009108A108B10888EEC80E83E0D81EE11C61
:10030000F11C81149104A104B10429F7FF90EF902E
:10031000DF90CF90BF90AF909F908F900895AF9255
:10032000BF92CF92DF92EF92FF920F931F93CF93E2
:10033000DF936C017B018B01040F151FEB015E0144
:10034000AE18BF08C017D10759F06991D601ED91D9
:10035000FC910190F081E02DC6010995892B79F778
:10036000C501DF91CF911F910F91FF90EF90DF902A
:10037000CF90BF90AF900895FC01538D448D252FF1
:1003800030E0842F90E0821B930B541710F0CF962F
:10039000089501970895FC01918D828D981761F061
:1003A000A28DAE0FBF2FB11D5D968C91928D9F5F78
:1003B0009F73928F90E008958FEF9FEF0895FC0157
:1003C000918D828D981731F0828DE80FF11D858D0A
:1003D00090E008958FEF9FEF0895FC01918D228D9D
:1003E000892F90E0805C9F4F821B91098F73992722
:1003F00008958AE097E00E94ED0121E0892B09F43D
:1004000020E0822F089580E090E0892B29F00E945F
:10041000F90181110C9400000895FC01A48DA80F2E
:10042000B92FB11DA35ABF4F2C91848D90E0019636
:100430008F739927848FA689B7892C93A089B18956
:100440008C91837080648C93938D848D981306C0F7
:100450000288F389E02D80818F7D80830895EF925B
:10046000FF920F931F93CF93DF93EC0181E0888F6E
:100470009B8D8C8D98131AC0E889F989808185FF3E
:1004800015C09FB7F894EE89FF896083E889F989E0
:1004900080818370806480839FBF81E090E0DF91E2
:1004A000CF911F910F91FF90EF900895F62E0B8D35
:1004B00010E00F5F1F4F0F731127E02E8C8D8E11F0
:1004C0000CC00FB607FCFACFE889F989808185FF57
:1004D000F5CFCE010E940D02F1CFEB8DEC0FFD2F79
:1004E000F11DE35AFF4FF0829FB7F8940B8FEA8912
:1004F000FB8980818062CFCFCF93DF93EC01888D21
:100500008823B9F0AA89BB89E889F9898C9185FD8E
:1005100003C0808186FD0DC00FB607FCF7CF8C911C
:1005200085FFF2CF808185FFEDCFCE010E940D02C5
:10053000E9CFDF91CF9108958EBD00000DB407FE85
:10054000FDCF8EB50895FC0101900020E9F73197A9
:10055000AF01481B590BBC018AE097E00C948F0156
:100560008F929F92AF92BF920F931F93CF93DF937F
:10057000CDB7DEB7A1970FB6F894DEBF0FBECDBFE3
:1005800019A2423008F44AE08E010F5D1F4F842EFD
:10059000912CB12CA12CA50194010E946507E62F96
:1005A000B901CA01EA30F4F4E05DD801EE938D019F
:1005B000232B242B252B79F790E080E0109719F05E
:1005C000CD010E94A302A1960FB6F894DEBF0FBE24
:1005D000CDBFDF91CF911F910F91BF90AF909F90B2
:1005E0008F900895E95CE1CFCF93DF930E94A3023F
:1005F000EC0182E191E00E94A3028C0F9D1FDF912C
:10060000CF9108951F93CF93DF93182FD62FC42F28
:1006100085E191E00E94A302612F70E090E080E00C
:1006200040E10E94B0028AE191E00E94A3026D2F96
:1006300070E090E080E040E10E94B0028AE191E049
:100640000E94A3026C2F70E090E080E040E10E94E5
:10065000B00282E191E00E94A3020E94B500892BC2
:10066000E1F360E087E00E94D900812F0E949C02A4
:100670008D2F0E949C028C2F0E949C0261E087E0DB
:100680000E94D90061E070E080E090E0DF91CF91BE
:100690001F910C945D011F920F920FB60F921124BF
:1006A0002F933F938F939F93AF93BF9380910207B4
:1006B00090910307A0910407B091050730910107BD
:1006C00023E0230F2D3758F50196A11DB11D20936E
:1006D00001078093020790930307A0930407B09348
:1006E00005078091060790910707A0910807B09130
:1006F00009070196A11DB11D809306079093070776
:10070000A0930807B0930907BF91AF919F918F9174
:100710003F912F910F900FBE0F901F90189526E8D4
:10072000230F0296A11DB11DD2CF1F920F920FB6BB
:100730000F9211242F933F934F935F936F937F9367
:100740008F939F93AF93BF93EF93FF938AE097E0CC
:100750000E940D02FF91EF91BF91AF919F918F91F8
:100760007F916F915F914F913F912F910F900FBEAD
:100770000F901F9018951F920F920FB60F92112491
:100780002F938F939F93EF93FF93E0911A07F0912C
:100790001B078081E0912007F091210782FD1BC09B
:1007A0009081809123078F5F8F7320912407821798
:1007B00041F0E0912307F0E0E65FF84F958F8093DA
:1007C0002307FF91EF919F918F912F910F900FBE73
:1007D0000F901F9018958081F4CF789484B5826033
:1007E00084BD84B5816084BD85B5826085BD85B5D5
:1007F000816085BD80916E00816080936E00109253
:1008000081008091810082608093810080918100CD
:10081000816080938100809180008160809380005E
:100820008091B10084608093B1008091B0008160BC
:100830008093B00080917A00846080937A008091E8
:100840007A00826080937A0080917A008160809340
:100850007A0080917A00806880937A001092C100BB
:10086000E0911A07F0911B0782E08083E091160760
:10087000F09117071082E0911807F091190780E1B5
:10088000808310922207E0911E07F0911F0786E0F7
:100890008083E0911C07F0911D0780818061808337
:1008A000E0911C07F0911D07808188608083E091B2
:1008B0001C07F0911D07808180688083E0911C07F0
:1008C000F0911D0780818F7D808387E291E00E94F7
:1008D000F40289E491E00E94F40261E086E00E9463
:1008E000070161E087E00E94070160E082E00E946A
:1008F000070161E088E00E94070161E086E00E9454
:10090000D90061E087E00E94D90061E088E00E94A0
:10091000D9008CE591E00E94F4028FE691E00E94FC
:10092000A3020E94B500892B09F072C083E291E016
:100930000E94F402CFB7F89480910007811127C07C
:10094000E0E9F0E08491E4EAF0E09491E82FF0E04F
:10095000EE0FFF1FE859FF4FA591B491EC91E923E9
:1009600021F461E08AE00E94D90061E08AE00E94FF
:1009700007018CB580618CBD8CB580648CBD61E055
:100980008DE00E94070161E08BE00E9407018091E9
:1009900000078F5F80930007CFBF80E891E00E943F
:1009A000F40280E991E00E94F40260E088E00E9495
:1009B000D9006AE070E080E090E00E945D0161E0B3
:1009C00088E00E94D90064EF71E080E090E00E942E
:1009D0005D018AEA91E00E94A3020E94B500892B82
:1009E000D1F483E291E00E94F4028DEB91E00E9449
:1009F000F402C9EED3E00E94B500892B79F4219767
:100A000069F06AE070E080E090E00E945D01F3CF61
:100A10008EE191E08DCF8EE191E0E5CF0E94B500AF
:100A2000892B09F4E7C18CED91E00E94F40282E089
:100A300092E00E94F40260E086E00E94D90083E028
:100A40000E949C0280E00E949C0280E00E949C0226
:100A5000C82FD0E0DC2FCC2780E00E949C02C82B5E
:100A600061E086E00E94D90081E594E00E94A30243
:100A7000BE0190E080E040E10E94B00282E191E09E
:100A80000E94A3022197CE3FDF4F08F0D0C183E739
:100A900093E00E94F40281E993E00E94F4028CEC5E
:100AA00093E00E94F4020E94B500892BE1F360E01C
:100AB00086E00E94D90082E00E949C028BE00E94A6
:100AC0009C0280E20E949C0280E20E949C0261E003
:100AD00086E00E94D9008AEE93E00E94F40285EF3E
:100AE00093E00E94F4020E94B500892BE1F38DE0AF
:100AF00094E00E94F40260E086E00E94D90082E067
:100B00000E949C0280E00E949C0288E40E949C0259
:100B100084E00E949C0261E086E00E94D90064E6C5
:100B200070E080E090E00E945D018FE294E00E941E
:100B3000F40260E086E00E94D90083E00E949C02FB
:100B400080E00E949C0280E00E949C02C82FD0E0BE
:100B5000DC2FCC2780E00E949C02C82B61E086E05D
:100B60000E94D9008DE494E00E94A302BE0190E0AF
:100B700080E040E10E94B00282E191E00E94A30285
:100B800064E670E080E090E00E945D0189E694E018
:100B90000E94F40264E670E080E090E00E945D0153
:100BA0004FE767E080EB0E94020362E370E080E0C1
:100BB00090E00E945D018FE894E00E94F40282EBD5
:100BC00094E00E94F4024FE767E081EB0E94020389
:100BD0004FE764E581E90E9402036CE271E080E086
:100BE00090E00E945D0140E064E581E80E9402031C
:100BF00068EC70E080E090E00E945D0187EC94E09A
:100C00000E94F4024FE767E082EB0E9402034FE785
:100C100060E682E90E9402036CE271E080E090E00D
:100C20000E945D0140E060E682E80E94020368ECF9
:100C300070E080E090E00E945D018CED94E00E9405
:100C4000F4024FE767E083EB0E9402034FE768E49A
:100C500083E90E9402036CE271E080E090E00E9470
:100C60005D0140E068E483E80E94020364EF71E004
:100C700080E090E00E945D0181EF94E00E94F40228
:100C80004FE76CE380E90E94020364EF71E080E0CB
:100C900090E00E945D0140E06CE380E80E94020366
:100CA00068EC70E080E090E00E945D0187E095E0F4
:100CB0000E94F40287E195E00E94F40268EE73E07E
:100CC00080E090E00E945D01C0E0D0E087E395E025
:100CD0000E94F40283E595E00E94F40240E06BE795
:100CE00080EB0E94020364E670E080E090E00E94E6
:100CF0005D018CE695E00E94F40289EA95E00E948D
:100D0000F4024CE364E680E90E94020360E273E0CF
:100D100080E090E00E945D0140E064E680E80E948F
:100D2000020364EF71E080E090E00E945D018CEED0
:100D300095E00E94F40248E464E680E90E94020320
:100D400060E273E080E090E00E945D0140E064E6D4
:100D500080E80E94020364EF71E080E090E00E946E
:100D60005D018FE296E00E94F40240E364E680E9D0
:100D70000E94020360E273E080E090E00E945D0167
:100D800040E064E680E80E94020364EF71E080E0E6
:100D900090E00E945D0182E796E00E94F40244E543
:100DA00064E680E90E94020360E273E080E090E084
:100DB0000E945D0140E064E680E80E94020364EF67
:100DC00071E080E090E00E945D0185EB96E00E947A
:100DD000F40268EB7BE080E090E00E945D012097E8
:100DE00009F474CF0E94F901882309F46FCF0E949F
:100DF00000006CCF86E292E00E94F40280E692E06E
:100E00000E94F40287E692E00E94F40288E892E0F1
:100E10000E94F4028EE992E00E94F40268EE73E010
:100E200080E090E00E945D0184EB92E0F5CF81EDDF
:100E300092E00E94F40288E093E00E94F4028AE1CA
:100E400093E00E94F4028BE293E00E94F4028CE3B0
:100E500093E00E94F4028CE493E00E94F40268EEB6
:100E600073E080E090E00E945D018BE593E0F5CFB8
:100E7000EAE0F7E01382128288EE93E0A0E0B0E0AF
:100E800084839583A683B78384E091E091838083F4
:100E900085EC90E09587848784EC90E0978786873F
:100EA00080EC90E0918B808B81EC90E0938B828B37
:100EB00082EC90E0958B848B86EC90E0978B868B10
:100EC000118E128E138E148E0895A1E21A2EAA1B73
:100ED000BB1BFD010DC0AA1FBB1FEE1FFF1FA217EA
:100EE000B307E407F50720F0A21BB30BE40BF50BE7
:100EF000661F771F881F991F1A9469F76095709570
:100F0000809590959B01AC01BD01CF010895EE0F36
:0E0F1000FF1F0590F491E02D0994F894FFCF97
:100F1E00000000002F028F01BC017C02ED01CB010D
:100F2E00DF010D0A004D4944493A20307800484906
:100F3E004748004C4F5700565331303533204D49FA
:100F4E0044492042656C6C2054657374205374615F
:100F5E007274696E672E2E2E0053657474696E67F7
:100F6E002075702070696E732E2E2E0050696E20C3
:100F7E00736574757020636F6D706C657465004475
:100F8E005245512070696E2073746174653A200069
:100F9E0053504920696E697469616C697A656400A1
:100FAE0054657374696E672072657365742073651A
:100FBE007175656E63652E2E2E004452455120616B
:100FCE00667465722072657365743A2000576169A4
:100FDE0074696E6720666F72204452455120746F9B
:100FEE0020676F20484947482E2E2E004452455107
:100FFE002069732048494748202D205653313035FB
:10100E00332073686F756C6420626520726561644D
:10101E00790054657374696E67206D616E75616CCD
:10102E002053504920636F6D6D756E6963617469ED
:10103E006F6E2E2E2E0044524551206E65766572CF
:10104E002077656E742048494748202D20706F73B5
:10105E007369626C6520706F776572206F722063A2
:10106E006F6E6E656374696F6E206973737565005C
:10107E00436865636B3A00312E20355620706F77CA
:10108E00657220636F6E6E656374696F6E20746F28
:10109E002056533130353300322E2047726F756E25
:1010AE006420636F6E6E656374696F6E7300332EAA
:1010BE002044524551207769726520746F20706903
:1010CE006E20320048616C746564202D206669784C
:1010DE0020686172647761726520697373756573D8
:1010EE0000496E76616C6964204D4F4445207265EF
:1010FE006769737465722076616C7565202D205357
:10110E00504920636F6D6D756E69636174696F6EA2
:10111E00206661696C656400436865636B2053509B
:10112E004920776972696E673A0020204D49534F06
:10113E00202D3E2050696E2031320020204D4F531D
:10114E0049202D3E2050696E20313100202053431E
:10115E004B202D3E2050696E203133002020584305
:10116E0053202D3E2050696E20360048616C746508
:10117E0064202D2066697820535049207769726962
:10118E006E670053504920636F6D6D756E696361B4
:10119E0074696F6E207375636365737366756C2106
:1011AE0000427970617373696E67206C6962726157
:1011BE00727920696E697469616C697A6174696F9C
:1011CE006E20616E6420646F696E67206D616E754E
:1011DE00616C2073657475702E2E2E0053657474B9
:1011EE00696E6720757020565331303533206D612E
:1011FE006E75616C6C792E2E2E00566F6C756D654A
:10120E0020736574004C6F6164696E67204D4944AC
:10121E004920706174636865732E2E2E00536574B9
:10122E0074696E67204D4F4445207265676973740B
:10123E00657220666F72204D4944492E2E2E005243
:10124E00656164696E67206261636B204D4F444532
:10125E002072656769737465722E2E2E004E657747
:10126E00204D4F4445207265676973746572207610
:10127E00616C75653A203078004D616E75616C2039
:10128E00736574757020636F6D706C657465212065
:10129E00547279696E67204D4944492E2E2E0054A2
:1012AE00657374696E6720646966666572656E74CF
:1012BE00204D494449206368616E6E656C732E2E15
:1012CE002E0054657374696E67204368616E6E6597
:1012DE006C20322E2E2E0054657374696E67204377
:1012EE0068616E6E656C20332E2E2E0054657374FD
:1012FE00696E67204368616E6E656C20342E2E2EEB
:10130E000054657374696E67206261736963206E41
:10131E006F74652E2E2E004D4944492074657374EA
:10132E002073656E7421005374617274696E672048
:10133E004D4944492062656C6C2074657374206C51
:10134E006F6F702E2E2E003D3D3D20506172616DEF
:10135E006574657220537761702054657374203DF7
:10136E003D3D0053656E64696E6720416C6C204E86
:10137E006F746573204F66662E2E2E00546573743F
:10138E00696E672077697468205357415050454401
:10139E0020706172616D6574657273202D207665A3
:1013AE006C6F636974792066697273742C2074682B
:1013BE00656E206E6F74653A0054657374696E675E
:1013CE002076656C6F636974792036302C206E6FD1
:1013DE007465203130302028737761707065642019
:1013EE0066726F6D206E6F74652036302C207665B8
:1013FE006C6F6369747920313030290054657374D1
:10140E00696E672076656C6F636974792037322C4C
:10141E00206E6F74652031303020287377617070C4
:10142E0065642066726F6D206E6F74652037322C86
:10143E002076656C6F6369747920313030290054E1
:10144E00657374696E672076656C6F636974792055
:10145E0034382C206E6F746520313030202873772D
:10146E0061707065642066726F6D206E6F7465209A
:10147E0034382C2076656C6F636974792031303086
:10148E00290054657374696E672076656C6F6369A5
:10149E0074792038342C206E6F74652031303020F2
:1014AE0028737761707065642066726F6D206E6F41
:1014BE0074652038342C2076656C6F6369747920DE
:1014CE0031303029003D3D3D204E6F7720796F75CC
:1014DE002073686F756C6420686561722050495482
:1014EE004348206368616E6765732069662074687F
:1014FE006520706172616D657465727320776572B7
:10150E0065207377617070656421203D3D3D00005C
:00000001FF
